{
  "_format": "hh-sol-artifact-1",
  "contractName": "NFTMarketplace",
  "sourceName": "contracts/NFTMarketplace.sol",
  "abi": [
    {
      "inputs": [],
      "stateMutability": "nonpayable",
      "type": "constructor"
    },
    {
      "anonymous": false,
      "inputs": [
        {
          "indexed": true,
          "internalType": "address",
          "name": "owner",
          "type": "address"
        },
        {
          "indexed": true,
          "internalType": "address",
          "name": "approved",
          "type": "address"
        },
        {
          "indexed": true,
          "internalType": "uint256",
          "name": "tokenId",
          "type": "uint256"
        }
      ],
      "name": "Approval",
      "type": "event"
    },
    {
      "anonymous": false,
      "inputs": [
        {
          "indexed": true,
          "internalType": "address",
          "name": "owner",
          "type": "address"
        },
        {
          "indexed": true,
          "internalType": "address",
          "name": "operator",
          "type": "address"
        },
        {
          "indexed": false,
          "internalType": "bool",
          "name": "approved",
          "type": "bool"
        }
      ],
      "name": "ApprovalForAll",
      "type": "event"
    },
    {
      "anonymous": false,
      "inputs": [
        {
          "indexed": true,
          "internalType": "address",
          "name": "from",
          "type": "address"
        },
        {
          "indexed": true,
          "internalType": "address",
          "name": "to",
          "type": "address"
        },
        {
          "indexed": true,
          "internalType": "uint256",
          "name": "tokenId",
          "type": "uint256"
        }
      ],
      "name": "Transfer",
      "type": "event"
    },
    {
      "anonymous": false,
      "inputs": [
        {
          "indexed": true,
          "internalType": "uint256",
          "name": "tokenId",
          "type": "uint256"
        },
        {
          "indexed": false,
          "internalType": "address",
          "name": "seller",
          "type": "address"
        },
        {
          "indexed": false,
          "internalType": "address",
          "name": "owner",
          "type": "address"
        },
        {
          "indexed": false,
          "internalType": "uint256",
          "name": "price",
          "type": "uint256"
        },
        {
          "indexed": false,
          "internalType": "bool",
          "name": "sold",
          "type": "bool"
        }
      ],
      "name": "idMarketItemCreated",
      "type": "event"
    },
    {
      "inputs": [
        {
          "internalType": "address",
          "name": "to",
          "type": "address"
        },
        {
          "internalType": "uint256",
          "name": "tokenId",
          "type": "uint256"
        }
      ],
      "name": "approve",
      "outputs": [],
      "stateMutability": "nonpayable",
      "type": "function"
    },
    {
      "inputs": [
        {
          "internalType": "address",
          "name": "owner",
          "type": "address"
        }
      ],
      "name": "balanceOf",
      "outputs": [
        {
          "internalType": "uint256",
          "name": "",
          "type": "uint256"
        }
      ],
      "stateMutability": "view",
      "type": "function"
    },
    {
      "inputs": [
        {
          "internalType": "uint256",
          "name": "tokenId",
          "type": "uint256"
        }
      ],
      "name": "createMarketSale",
      "outputs": [],
      "stateMutability": "payable",
      "type": "function"
    },
    {
      "inputs": [
        {
          "internalType": "string",
          "name": "tokenURI",
          "type": "string"
        },
        {
          "internalType": "uint256",
          "name": "price",
          "type": "uint256"
        }
      ],
      "name": "createToken",
      "outputs": [
        {
          "internalType": "uint256",
          "name": "",
          "type": "uint256"
        }
      ],
      "stateMutability": "payable",
      "type": "function"
    },
    {
      "inputs": [],
      "name": "fetchItemsListed",
      "outputs": [
        {
          "components": [
            {
              "internalType": "uint256",
              "name": "tokenId",
              "type": "uint256"
            },
            {
              "internalType": "address payable",
              "name": "seller",
              "type": "address"
            },
            {
              "internalType": "address payable",
              "name": "owner",
              "type": "address"
            },
            {
              "internalType": "uint256",
              "name": "price",
              "type": "uint256"
            },
            {
              "internalType": "bool",
              "name": "sold",
              "type": "bool"
            }
          ],
          "internalType": "struct NFTMarketplace.MarketItem[]",
          "name": "",
          "type": "tuple[]"
        }
      ],
      "stateMutability": "view",
      "type": "function"
    },
    {
      "inputs": [],
      "name": "fetchMarketItems",
      "outputs": [
        {
          "components": [
            {
              "internalType": "uint256",
              "name": "tokenId",
              "type": "uint256"
            },
            {
              "internalType": "address payable",
              "name": "seller",
              "type": "address"
            },
            {
              "internalType": "address payable",
              "name": "owner",
              "type": "address"
            },
            {
              "internalType": "uint256",
              "name": "price",
              "type": "uint256"
            },
            {
              "internalType": "bool",
              "name": "sold",
              "type": "bool"
            }
          ],
          "internalType": "struct NFTMarketplace.MarketItem[]",
          "name": "",
          "type": "tuple[]"
        }
      ],
      "stateMutability": "view",
      "type": "function"
    },
    {
      "inputs": [],
      "name": "fetchMyNFTs",
      "outputs": [
        {
          "components": [
            {
              "internalType": "uint256",
              "name": "tokenId",
              "type": "uint256"
            },
            {
              "internalType": "address payable",
              "name": "seller",
              "type": "address"
            },
            {
              "internalType": "address payable",
              "name": "owner",
              "type": "address"
            },
            {
              "internalType": "uint256",
              "name": "price",
              "type": "uint256"
            },
            {
              "internalType": "bool",
              "name": "sold",
              "type": "bool"
            }
          ],
          "internalType": "struct NFTMarketplace.MarketItem[]",
          "name": "",
          "type": "tuple[]"
        }
      ],
      "stateMutability": "view",
      "type": "function"
    },
    {
      "inputs": [
        {
          "internalType": "uint256",
          "name": "tokenId",
          "type": "uint256"
        }
      ],
      "name": "getApproved",
      "outputs": [
        {
          "internalType": "address",
          "name": "",
          "type": "address"
        }
      ],
      "stateMutability": "view",
      "type": "function"
    },
    {
      "inputs": [],
      "name": "getListingPrice",
      "outputs": [
        {
          "internalType": "uint256",
          "name": "",
          "type": "uint256"
        }
      ],
      "stateMutability": "view",
      "type": "function"
    },
    {
      "inputs": [
        {
          "internalType": "address",
          "name": "owner",
          "type": "address"
        },
        {
          "internalType": "address",
          "name": "operator",
          "type": "address"
        }
      ],
      "name": "isApprovedForAll",
      "outputs": [
        {
          "internalType": "bool",
          "name": "",
          "type": "bool"
        }
      ],
      "stateMutability": "view",
      "type": "function"
    },
    {
      "inputs": [],
      "name": "name",
      "outputs": [
        {
          "internalType": "string",
          "name": "",
          "type": "string"
        }
      ],
      "stateMutability": "view",
      "type": "function"
    },
    {
      "inputs": [
        {
          "internalType": "uint256",
          "name": "tokenId",
          "type": "uint256"
        }
      ],
      "name": "ownerOf",
      "outputs": [
        {
          "internalType": "address",
          "name": "",
          "type": "address"
        }
      ],
      "stateMutability": "view",
      "type": "function"
    },
    {
      "inputs": [
        {
          "internalType": "uint256",
          "name": "tokenId",
          "type": "uint256"
        },
        {
          "internalType": "uint256",
          "name": "price",
          "type": "uint256"
        }
      ],
      "name": "reSellToken",
      "outputs": [],
      "stateMutability": "payable",
      "type": "function"
    },
    {
      "inputs": [
        {
          "internalType": "address",
          "name": "from",
          "type": "address"
        },
        {
          "internalType": "address",
          "name": "to",
          "type": "address"
        },
        {
          "internalType": "uint256",
          "name": "tokenId",
          "type": "uint256"
        }
      ],
      "name": "safeTransferFrom",
      "outputs": [],
      "stateMutability": "nonpayable",
      "type": "function"
    },
    {
      "inputs": [
        {
          "internalType": "address",
          "name": "from",
          "type": "address"
        },
        {
          "internalType": "address",
          "name": "to",
          "type": "address"
        },
        {
          "internalType": "uint256",
          "name": "tokenId",
          "type": "uint256"
        },
        {
          "internalType": "bytes",
          "name": "data",
          "type": "bytes"
        }
      ],
      "name": "safeTransferFrom",
      "outputs": [],
      "stateMutability": "nonpayable",
      "type": "function"
    },
    {
      "inputs": [
        {
          "internalType": "address",
          "name": "operator",
          "type": "address"
        },
        {
          "internalType": "bool",
          "name": "approved",
          "type": "bool"
        }
      ],
      "name": "setApprovalForAll",
      "outputs": [],
      "stateMutability": "nonpayable",
      "type": "function"
    },
    {
      "inputs": [
        {
          "internalType": "bytes4",
          "name": "interfaceId",
          "type": "bytes4"
        }
      ],
      "name": "supportsInterface",
      "outputs": [
        {
          "internalType": "bool",
          "name": "",
          "type": "bool"
        }
      ],
      "stateMutability": "view",
      "type": "function"
    },
    {
      "inputs": [],
      "name": "symbol",
      "outputs": [
        {
          "internalType": "string",
          "name": "",
          "type": "string"
        }
      ],
      "stateMutability": "view",
      "type": "function"
    },
    {
      "inputs": [
        {
          "internalType": "uint256",
          "name": "tokenId",
          "type": "uint256"
        }
      ],
      "name": "tokenURI",
      "outputs": [
        {
          "internalType": "string",
          "name": "",
          "type": "string"
        }
      ],
      "stateMutability": "view",
      "type": "function"
    },
    {
      "inputs": [
        {
          "internalType": "address",
          "name": "from",
          "type": "address"
        },
        {
          "internalType": "address",
          "name": "to",
          "type": "address"
        },
        {
          "internalType": "uint256",
          "name": "tokenId",
          "type": "uint256"
        }
      ],
      "name": "transferFrom",
      "outputs": [],
      "stateMutability": "nonpayable",
      "type": "function"
    },
    {
      "inputs": [
        {
          "internalType": "uint256",
          "name": "_listingPrice",
          "type": "uint256"
        }
      ],
      "name": "updateListingPrice",
      "outputs": [],
      "stateMutability": "payable",
      "type": "function"
    }
  ],
  "bytecode": "0x60806040526605543df729c0006009553480156200001c57600080fd5b506040518060400160405280601381526020017f4e4654204d657461766172736520546f6b656e000000000000000000000000008152506040518060400160405280600581526020017f4d594e465400000000000000000000000000000000000000000000000000000081525081600090816200009a919062000355565b508060019081620000ac919062000355565b5050503373ffffffffffffffffffffffffffffffffffffffff16600a60009054906101000a905050506200043c565b600081519050919050565b7f4e487b7100000000000000000000000000000000000000000000000000000000600052604160045260246000fd5b7f4e487b7100000000000000000000000000000000000000000000000000000000600052602260045260246000fd5b600060028204905060018216806200015d57607f821691505b60208210810362000173576200017262000115565b5b50919050565b60008190508160005260206000209050919050565b60006020601f8301049050919050565b600082821b905092915050565b600060088302620001dd7fffffffffffffffffffffffffffffffffffffffffffffffffffffffffffffffff826200019e565b620001e986836200019e565b95508019841693508086168417925050509392505050565b6000819050919050565b6000819050919050565b600062000236620002306200022a8462000201565b6200020b565b62000201565b9050919050565b6000819050919050565b620002528362000215565b6200026a62000261826200023d565b848454620001ab565b825550505050565b600090565b6200028162000272565b6200028e81848462000247565b505050565b5b81811015620002b657620002aa60008262000277565b60018101905062000294565b5050565b601f8211156200030557620002cf8162000179565b620002da846200018e565b81016020851015620002ea578190505b62000302620002f9856200018e565b83018262000293565b50505b505050565b600082821c905092915050565b60006200032a600019846008026200030a565b1980831691505092915050565b600062000345838362000317565b9150826002028217905092915050565b6200036082620000db565b67ffffffffffffffff8111156200037c576200037b620000e6565b5b62000388825462000144565b62000395828285620002ba565b600060209050601f831160018114620003cd5760008415620003b8578287015190505b620003c4858262000337565b86555062000434565b601f198416620003dd8662000179565b60005b828110156200040757848901518255600182019150602085019450602081019050620003e0565b8683101562000427578489015162000423601f89168262000317565b8355505b6001600288020188555050505b505050505050565b6143e5806200044c6000396000f3fe60806040526004361061012a5760003560e01c80636352211e116100ab578063a22cb4651161006f578063a22cb465146103ec578063ae677aa314610415578063b88d4fde14610431578063be9af5361461045a578063c87b56dd14610476578063e985e9c5146104b35761012a565b80636352211e146102fb57806370a082311461033857806372b3b6201461037557806385535b25146103a557806395d89b41146103c15761012a565b806312e85585116100f257806312e8558514610228578063202e37401461025357806323b872dd1461027e57806342842e0e146102a757806345f8fa80146102d05761012a565b806301ffc9a71461012f57806306fdde031461016c578063081812fc14610197578063095ea7b3146101d45780630f08efe0146101fd575b600080fd5b34801561013b57600080fd5b5061015660048036038101906101519190612c17565b6104f0565b6040516101639190612c5f565b60405180910390f35b34801561017857600080fd5b506101816105d2565b60405161018e9190612d0a565b60405180910390f35b3480156101a357600080fd5b506101be60048036038101906101b99190612d62565b610664565b6040516101cb9190612dd0565b60405180910390f35b3480156101e057600080fd5b506101fb60048036038101906101f69190612e17565b6106aa565b005b34801561020957600080fd5b506102126107c1565b60405161021f9190612fad565b60405180910390f35b34801561023457600080fd5b5061023d610a29565b60405161024a9190612fde565b60405180910390f35b34801561025f57600080fd5b50610268610a33565b6040516102759190612fad565b60405180910390f35b34801561028a57600080fd5b506102a560048036038101906102a09190612ff9565b610d1f565b005b3480156102b357600080fd5b506102ce60048036038101906102c99190612ff9565b610d7f565b005b3480156102dc57600080fd5b506102e5610d9f565b6040516102f29190612fad565b60405180910390f35b34801561030757600080fd5b50610322600480360381019061031d9190612d62565b61108b565b60405161032f9190612dd0565b60405180910390f35b34801561034457600080fd5b5061035f600480360381019061035a919061304c565b611111565b60405161036c9190612fde565b60405180910390f35b61038f600480360381019061038a91906131ae565b6111c8565b60405161039c9190612fde565b60405180910390f35b6103bf60048036038101906103ba919061320a565b61120a565b005b3480156103cd57600080fd5b506103d66113ff565b6040516103e39190612d0a565b60405180910390f35b3480156103f857600080fd5b50610413600480360381019061040e9190613276565b611491565b005b61042f600480360381019061042a9190612d62565b6114a7565b005b34801561043d57600080fd5b5061045860048036038101906104539190613357565b611541565b005b610474600480360381019061046f9190612d62565b6115a3565b005b34801561048257600080fd5b5061049d60048036038101906104989190612d62565b6117db565b6040516104aa9190612d0a565b60405180910390f35b3480156104bf57600080fd5b506104da60048036038101906104d591906133da565b6118ed565b6040516104e79190612c5f565b60405180910390f35b60007f80ac58cd000000000000000000000000000000000000000000000000000000007bffffffffffffffffffffffffffffffffffffffffffffffffffffffff1916827bffffffffffffffffffffffffffffffffffffffffffffffffffffffff191614806105bb57507f5b5e139f000000000000000000000000000000000000000000000000000000007bffffffffffffffffffffffffffffffffffffffffffffffffffffffff1916827bffffffffffffffffffffffffffffffffffffffffffffffffffffffff1916145b806105cb57506105ca82611981565b5b9050919050565b6060600080546105e190613449565b80601f016020809104026020016040519081016040528092919081815260200182805461060d90613449565b801561065a5780601f1061062f5761010080835404028352916020019161065a565b820191906000526020600020905b81548152906001019060200180831161063d57829003601f168201915b5050505050905090565b600061066f826119eb565b6004600083815260200190815260200160002060009054906101000a900473ffffffffffffffffffffffffffffffffffffffff169050919050565b60006106b58261108b565b90508073ffffffffffffffffffffffffffffffffffffffff168373ffffffffffffffffffffffffffffffffffffffff1603610725576040517f08c379a000000000000000000000000000000000000000000000000000000000815260040161071c906134ec565b60405180910390fd5b8073ffffffffffffffffffffffffffffffffffffffff16610744611a36565b73ffffffffffffffffffffffffffffffffffffffff16148061077357506107728161076d611a36565b6118ed565b5b6107b2576040517f08c379a00000000000000000000000000000000000000000000000000000000081526004016107a99061357e565b60405180910390fd5b6107bc8383611a3e565b505050565b606060006107cf6007611af7565b905060006107dd6008611af7565b6107e76007611af7565b6107f191906135cd565b90506000808267ffffffffffffffff8111156108105761080f613083565b5b60405190808252806020026020018201604052801561084957816020015b610836612b4e565b81526020019060019003908161082e5790505b50905060005b84811015610a1e573073ffffffffffffffffffffffffffffffffffffffff16600b600060018461087f9190613601565b815260200190815260200160002060020160009054906101000a900473ffffffffffffffffffffffffffffffffffffffff1673ffffffffffffffffffffffffffffffffffffffff1603610a0b5760006001826108db9190613601565b90506000600b60008381526020019081526020016000209050806040518060a0016040529081600082015481526020016001820160009054906101000a900473ffffffffffffffffffffffffffffffffffffffff1673ffffffffffffffffffffffffffffffffffffffff1673ffffffffffffffffffffffffffffffffffffffff1681526020016002820160009054906101000a900473ffffffffffffffffffffffffffffffffffffffff1673ffffffffffffffffffffffffffffffffffffffff1673ffffffffffffffffffffffffffffffffffffffff168152602001600382015481526020016004820160009054906101000a900460ff1615151515815250508486815181106109ee576109ed613635565b5b6020026020010181905250600185610a069190613601565b945050505b8080610a1690613664565b91505061084f565b508094505050505090565b6000600954905090565b60606000610a416007611af7565b905060008060005b83811015610ae9573373ffffffffffffffffffffffffffffffffffffffff16600b6000600184610a799190613601565b815260200190815260200160002060020160009054906101000a900473ffffffffffffffffffffffffffffffffffffffff1673ffffffffffffffffffffffffffffffffffffffff1603610ad657600183610ad39190613601565b92505b8080610ae190613664565b915050610a49565b5060008267ffffffffffffffff811115610b0657610b05613083565b5b604051908082528060200260200182016040528015610b3f57816020015b610b2c612b4e565b815260200190600190039081610b245790505b50905060005b84811015610d14573373ffffffffffffffffffffffffffffffffffffffff16600b6000600184610b759190613601565b815260200190815260200160002060020160009054906101000a900473ffffffffffffffffffffffffffffffffffffffff1673ffffffffffffffffffffffffffffffffffffffff1603610d01576000600182610bd19190613601565b90506000600b60008381526020019081526020016000209050806040518060a0016040529081600082015481526020016001820160009054906101000a900473ffffffffffffffffffffffffffffffffffffffff1673ffffffffffffffffffffffffffffffffffffffff1673ffffffffffffffffffffffffffffffffffffffff1681526020016002820160009054906101000a900473ffffffffffffffffffffffffffffffffffffffff1673ffffffffffffffffffffffffffffffffffffffff1673ffffffffffffffffffffffffffffffffffffffff168152602001600382015481526020016004820160009054906101000a900460ff161515151581525050848681518110610ce457610ce3613635565b5b6020026020010181905250600185610cfc9190613601565b945050505b8080610d0c90613664565b915050610b45565b508094505050505090565b610d30610d2a611a36565b82611b05565b610d6f576040517f08c379a0000000000000000000000000000000000000000000000000000000008152600401610d669061371e565b60405180910390fd5b610d7a838383611b9a565b505050565b610d9a83838360405180602001604052806000815250611541565b505050565b60606000610dad6007611af7565b905060008060005b83811015610e55573373ffffffffffffffffffffffffffffffffffffffff16600b6000600184610de59190613601565b815260200190815260200160002060010160009054906101000a900473ffffffffffffffffffffffffffffffffffffffff1673ffffffffffffffffffffffffffffffffffffffff1603610e4257600183610e3f9190613601565b92505b8080610e4d90613664565b915050610db5565b5060008267ffffffffffffffff811115610e7257610e71613083565b5b604051908082528060200260200182016040528015610eab57816020015b610e98612b4e565b815260200190600190039081610e905790505b50905060005b84811015611080573373ffffffffffffffffffffffffffffffffffffffff16600b6000600184610ee19190613601565b815260200190815260200160002060010160009054906101000a900473ffffffffffffffffffffffffffffffffffffffff1673ffffffffffffffffffffffffffffffffffffffff160361106d576000600182610f3d9190613601565b90506000600b60008381526020019081526020016000209050806040518060a0016040529081600082015481526020016001820160009054906101000a900473ffffffffffffffffffffffffffffffffffffffff1673ffffffffffffffffffffffffffffffffffffffff1673ffffffffffffffffffffffffffffffffffffffff1681526020016002820160009054906101000a900473ffffffffffffffffffffffffffffffffffffffff1673ffffffffffffffffffffffffffffffffffffffff1673ffffffffffffffffffffffffffffffffffffffff168152602001600382015481526020016004820160009054906101000a900460ff1615151515815250508486815181106110505761104f613635565b5b60200260200101819052506001856110689190613601565b945050505b808061107890613664565b915050610eb1565b508094505050505090565b60008061109783611e93565b9050600073ffffffffffffffffffffffffffffffffffffffff168173ffffffffffffffffffffffffffffffffffffffff1603611108576040517f08c379a00000000000000000000000000000000000000000000000000000000081526004016110ff9061378a565b60405180910390fd5b80915050919050565b60008073ffffffffffffffffffffffffffffffffffffffff168273ffffffffffffffffffffffffffffffffffffffff1603611181576040517f08c379a00000000000000000000000000000000000000000000000000000000081526004016111789061381c565b60405180910390fd5b600360008373ffffffffffffffffffffffffffffffffffffffff1673ffffffffffffffffffffffffffffffffffffffff168152602001908152602001600020549050919050565b60006111d46007611ed0565b60006111e06007611af7565b90506111ec3382611ee6565b6111f68185612103565b6112008184612170565b8091505092915050565b3373ffffffffffffffffffffffffffffffffffffffff16600b600084815260200190815260200160002060020160009054906101000a900473ffffffffffffffffffffffffffffffffffffffff1673ffffffffffffffffffffffffffffffffffffffff16146112ae576040517f08c379a00000000000000000000000000000000000000000000000000000000081526004016112a5906138ae565b60405180910390fd5b60095434146112f2576040517f08c379a00000000000000000000000000000000000000000000000000000000081526004016112e990613940565b60405180910390fd5b6000600b600084815260200190815260200160002060040160006101000a81548160ff02191690831515021790555080600b60008481526020019081526020016000206003018190555033600b600084815260200190815260200160002060010160006101000a81548173ffffffffffffffffffffffffffffffffffffffff021916908373ffffffffffffffffffffffffffffffffffffffff16021790555030600b600084815260200190815260200160002060020160006101000a81548173ffffffffffffffffffffffffffffffffffffffff021916908373ffffffffffffffffffffffffffffffffffffffff1602179055506113f06008612373565b6113fb333084611b9a565b5050565b60606001805461140e90613449565b80601f016020809104026020016040519081016040528092919081815260200182805461143a90613449565b80156114875780601f1061145c57610100808354040283529160200191611487565b820191906000526020600020905b81548152906001019060200180831161146a57829003601f168201915b5050505050905090565b6114a361149c611a36565b83836123cf565b5050565b600a60009054906101000a900473ffffffffffffffffffffffffffffffffffffffff1673ffffffffffffffffffffffffffffffffffffffff163373ffffffffffffffffffffffffffffffffffffffff1614611537576040517f08c379a000000000000000000000000000000000000000000000000000000000815260040161152e906139d2565b60405180910390fd5b8060098190555050565b61155261154c611a36565b83611b05565b611591576040517f08c379a00000000000000000000000000000000000000000000000000000000081526004016115889061371e565b60405180910390fd5b61159d8484848461253b565b50505050565b6000600b6000838152602001908152602001600020600301549050803414611600576040517f08c379a00000000000000000000000000000000000000000000000000000000081526004016115f790613a64565b60405180910390fd5b33600b600084815260200190815260200160002060020160006101000a81548173ffffffffffffffffffffffffffffffffffffffff021916908373ffffffffffffffffffffffffffffffffffffffff1602179055506001600b600084815260200190815260200160002060040160006101000a81548160ff0219169083151502179055506000600b600084815260200190815260200160002060020160006101000a81548173ffffffffffffffffffffffffffffffffffffffff021916908373ffffffffffffffffffffffffffffffffffffffff1602179055506116e46008611ed0565b6116ef303384611b9a565b600a60009054906101000a900473ffffffffffffffffffffffffffffffffffffffff1673ffffffffffffffffffffffffffffffffffffffff166108fc6009549081150290604051600060405180830381858888f19350505050158015611759573d6000803e3d6000fd5b50600b600083815260200190815260200160002060010160009054906101000a900473ffffffffffffffffffffffffffffffffffffffff1673ffffffffffffffffffffffffffffffffffffffff166108fc349081150290604051600060405180830381858888f193505050501580156117d6573d6000803e3d6000fd5b505050565b60606117e6826119eb565b600060066000848152602001908152602001600020805461180690613449565b80601f016020809104026020016040519081016040528092919081815260200182805461183290613449565b801561187f5780601f106118545761010080835404028352916020019161187f565b820191906000526020600020905b81548152906001019060200180831161186257829003601f168201915b505050505090506000611890612597565b905060008151036118a55781925050506118e8565b6000825111156118da5780826040516020016118c2929190613ac0565b604051602081830303815290604052925050506118e8565b6118e3846125ae565b925050505b919050565b6000600560008473ffffffffffffffffffffffffffffffffffffffff1673ffffffffffffffffffffffffffffffffffffffff16815260200190815260200160002060008373ffffffffffffffffffffffffffffffffffffffff1673ffffffffffffffffffffffffffffffffffffffff16815260200190815260200160002060009054906101000a900460ff16905092915050565b60007f01ffc9a7000000000000000000000000000000000000000000000000000000007bffffffffffffffffffffffffffffffffffffffffffffffffffffffff1916827bffffffffffffffffffffffffffffffffffffffffffffffffffffffff1916149050919050565b6119f481612616565b611a33576040517f08c379a0000000000000000000000000000000000000000000000000000000008152600401611a2a9061378a565b60405180910390fd5b50565b600033905090565b816004600083815260200190815260200160002060006101000a81548173ffffffffffffffffffffffffffffffffffffffff021916908373ffffffffffffffffffffffffffffffffffffffff160217905550808273ffffffffffffffffffffffffffffffffffffffff16611ab18361108b565b73ffffffffffffffffffffffffffffffffffffffff167f8c5be1e5ebec7d5bd14f71427d1e84f3dd0314c0f7b2291e5b200ac8c7c3b92560405160405180910390a45050565b600081600001549050919050565b600080611b118361108b565b90508073ffffffffffffffffffffffffffffffffffffffff168473ffffffffffffffffffffffffffffffffffffffff161480611b535750611b5281856118ed565b5b80611b9157508373ffffffffffffffffffffffffffffffffffffffff16611b7984610664565b73ffffffffffffffffffffffffffffffffffffffff16145b91505092915050565b8273ffffffffffffffffffffffffffffffffffffffff16611bba8261108b565b73ffffffffffffffffffffffffffffffffffffffff1614611c10576040517f08c379a0000000000000000000000000000000000000000000000000000000008152600401611c0790613b56565b60405180910390fd5b600073ffffffffffffffffffffffffffffffffffffffff168273ffffffffffffffffffffffffffffffffffffffff1603611c7f576040517f08c379a0000000000000000000000000000000000000000000000000000000008152600401611c7690613be8565b60405180910390fd5b611c8c8383836001612657565b8273ffffffffffffffffffffffffffffffffffffffff16611cac8261108b565b73ffffffffffffffffffffffffffffffffffffffff1614611d02576040517f08c379a0000000000000000000000000000000000000000000000000000000008152600401611cf990613b56565b60405180910390fd5b6004600082815260200190815260200160002060006101000a81549073ffffffffffffffffffffffffffffffffffffffff02191690556001600360008573ffffffffffffffffffffffffffffffffffffffff1673ffffffffffffffffffffffffffffffffffffffff168152602001908152602001600020600082825403925050819055506001600360008473ffffffffffffffffffffffffffffffffffffffff1673ffffffffffffffffffffffffffffffffffffffff16815260200190815260200160002060008282540192505081905550816002600083815260200190815260200160002060006101000a81548173ffffffffffffffffffffffffffffffffffffffff021916908373ffffffffffffffffffffffffffffffffffffffff160217905550808273ffffffffffffffffffffffffffffffffffffffff168473ffffffffffffffffffffffffffffffffffffffff167fddf252ad1be2c89b69c2b068fc378daa952ba7f163c4a11628f55a4df523b3ef60405160405180910390a4611e8e838383600161277d565b505050565b60006002600083815260200190815260200160002060009054906101000a900473ffffffffffffffffffffffffffffffffffffffff169050919050565b6001816000016000828254019250508190555050565b600073ffffffffffffffffffffffffffffffffffffffff168273ffffffffffffffffffffffffffffffffffffffff1603611f55576040517f08c379a0000000000000000000000000000000000000000000000000000000008152600401611f4c90613c54565b60405180910390fd5b611f5e81612616565b15611f9e576040517f08c379a0000000000000000000000000000000000000000000000000000000008152600401611f9590613cc0565b60405180910390fd5b611fac600083836001612657565b611fb581612616565b15611ff5576040517f08c379a0000000000000000000000000000000000000000000000000000000008152600401611fec90613cc0565b60405180910390fd5b6001600360008473ffffffffffffffffffffffffffffffffffffffff1673ffffffffffffffffffffffffffffffffffffffff16815260200190815260200160002060008282540192505081905550816002600083815260200190815260200160002060006101000a81548173ffffffffffffffffffffffffffffffffffffffff021916908373ffffffffffffffffffffffffffffffffffffffff160217905550808273ffffffffffffffffffffffffffffffffffffffff16600073ffffffffffffffffffffffffffffffffffffffff167fddf252ad1be2c89b69c2b068fc378daa952ba7f163c4a11628f55a4df523b3ef60405160405180910390a46120ff60008383600161277d565b5050565b61210c82612616565b61214b576040517f08c379a000000000000000000000000000000000000000000000000000000000815260040161214290613d52565b60405180910390fd5b8060066000848152602001908152602001600020908161216b9190613f1e565b505050565b600081116121b3576040517f08c379a00000000000000000000000000000000000000000000000000000000081526004016121aa9061403c565b60405180910390fd5b60095434146121f7576040517f08c379a00000000000000000000000000000000000000000000000000000000081526004016121ee906140ce565b60405180910390fd5b6040518060a001604052808381526020013373ffffffffffffffffffffffffffffffffffffffff1681526020013073ffffffffffffffffffffffffffffffffffffffff16815260200182815260200160001515815250600b60008481526020019081526020016000206000820151816000015560208201518160010160006101000a81548173ffffffffffffffffffffffffffffffffffffffff021916908373ffffffffffffffffffffffffffffffffffffffff16021790555060408201518160020160006101000a81548173ffffffffffffffffffffffffffffffffffffffff021916908373ffffffffffffffffffffffffffffffffffffffff1602179055506060820151816003015560808201518160040160006101000a81548160ff021916908315150217905550905050612330333084611b9a565b817fdebdb32cb5230ab727c9c361b16fdb2015df225c10e6a3e7f60ecd5dc5be4516333084600060405161236794939291906140ee565b60405180910390a25050565b600081600001549050600081116123bf576040517f08c379a00000000000000000000000000000000000000000000000000000000081526004016123b69061417f565b60405180910390fd5b6001810382600001819055505050565b8173ffffffffffffffffffffffffffffffffffffffff168373ffffffffffffffffffffffffffffffffffffffff160361243d576040517f08c379a0000000000000000000000000000000000000000000000000000000008152600401612434906141eb565b60405180910390fd5b80600560008573ffffffffffffffffffffffffffffffffffffffff1673ffffffffffffffffffffffffffffffffffffffff16815260200190815260200160002060008473ffffffffffffffffffffffffffffffffffffffff1673ffffffffffffffffffffffffffffffffffffffff16815260200190815260200160002060006101000a81548160ff0219169083151502179055508173ffffffffffffffffffffffffffffffffffffffff168373ffffffffffffffffffffffffffffffffffffffff167f17307eab39ab6107e8899845ad3d59bd9653f200f220920489ca2b5937696c318360405161252e9190612c5f565b60405180910390a3505050565b612546848484611b9a565b61255284848484612783565b612591576040517f08c379a00000000000000000000000000000000000000000000000000000000081526004016125889061427d565b60405180910390fd5b50505050565b606060405180602001604052806000815250905090565b60606125b9826119eb565b60006125c3612597565b905060008151116125e3576040518060200160405280600081525061260e565b806125ed8461290a565b6040516020016125fe929190613ac0565b6040516020818303038152906040525b915050919050565b60008073ffffffffffffffffffffffffffffffffffffffff1661263883611e93565b73ffffffffffffffffffffffffffffffffffffffff1614159050919050565b600181111561277757600073ffffffffffffffffffffffffffffffffffffffff168473ffffffffffffffffffffffffffffffffffffffff16146126eb5780600360008673ffffffffffffffffffffffffffffffffffffffff1673ffffffffffffffffffffffffffffffffffffffff16815260200190815260200160002060008282546126e391906135cd565b925050819055505b600073ffffffffffffffffffffffffffffffffffffffff168373ffffffffffffffffffffffffffffffffffffffff16146127765780600360008573ffffffffffffffffffffffffffffffffffffffff1673ffffffffffffffffffffffffffffffffffffffff168152602001908152602001600020600082825461276e9190613601565b925050819055505b5b50505050565b50505050565b60006127a48473ffffffffffffffffffffffffffffffffffffffff166129d8565b156128fd578373ffffffffffffffffffffffffffffffffffffffff1663150b7a026127cd611a36565b8786866040518563ffffffff1660e01b81526004016127ef94939291906142f2565b6020604051808303816000875af192505050801561282b57506040513d601f19601f820116820180604052508101906128289190614353565b60015b6128ad573d806000811461285b576040519150601f19603f3d011682016040523d82523d6000602084013e612860565b606091505b5060008151036128a5576040517f08c379a000000000000000000000000000000000000000000000000000000000815260040161289c9061427d565b60405180910390fd5b805181602001fd5b63150b7a0260e01b7bffffffffffffffffffffffffffffffffffffffffffffffffffffffff1916817bffffffffffffffffffffffffffffffffffffffffffffffffffffffff191614915050612902565b600190505b949350505050565b606060006001612919846129fb565b01905060008167ffffffffffffffff81111561293857612937613083565b5b6040519080825280601f01601f19166020018201604052801561296a5781602001600182028036833780820191505090505b509050600082602001820190505b6001156129cd578080600190039150507f3031323334353637383961626364656600000000000000000000000000000000600a86061a8153600a85816129c1576129c0614380565b5b04945060008503612978575b819350505050919050565b6000808273ffffffffffffffffffffffffffffffffffffffff163b119050919050565b600080600090507a184f03e93ff9f4daa797ed6e38ed64bf6a1f0100000000000000008310612a59577a184f03e93ff9f4daa797ed6e38ed64bf6a1f0100000000000000008381612a4f57612a4e614380565b5b0492506040810190505b6d04ee2d6d415b85acef81000000008310612a96576d04ee2d6d415b85acef81000000008381612a8c57612a8b614380565b5b0492506020810190505b662386f26fc100008310612ac557662386f26fc100008381612abb57612aba614380565b5b0492506010810190505b6305f5e1008310612aee576305f5e1008381612ae457612ae3614380565b5b0492506008810190505b6127108310612b13576127108381612b0957612b08614380565b5b0492506004810190505b60648310612b365760648381612b2c57612b2b614380565b5b0492506002810190505b600a8310612b45576001810190505b80915050919050565b6040518060a0016040528060008152602001600073ffffffffffffffffffffffffffffffffffffffff168152602001600073ffffffffffffffffffffffffffffffffffffffff168152602001600081526020016000151581525090565b6000604051905090565b600080fd5b600080fd5b60007fffffffff0000000000000000000000000000000000000000000000000000000082169050919050565b612bf481612bbf565b8114612bff57600080fd5b50565b600081359050612c1181612beb565b92915050565b600060208284031215612c2d57612c2c612bb5565b5b6000612c3b84828501612c02565b91505092915050565b60008115159050919050565b612c5981612c44565b82525050565b6000602082019050612c746000830184612c50565b92915050565b600081519050919050565b600082825260208201905092915050565b60005b83811015612cb4578082015181840152602081019050612c99565b60008484015250505050565b6000601f19601f8301169050919050565b6000612cdc82612c7a565b612ce68185612c85565b9350612cf6818560208601612c96565b612cff81612cc0565b840191505092915050565b60006020820190508181036000830152612d248184612cd1565b905092915050565b6000819050919050565b612d3f81612d2c565b8114612d4a57600080fd5b50565b600081359050612d5c81612d36565b92915050565b600060208284031215612d7857612d77612bb5565b5b6000612d8684828501612d4d565b91505092915050565b600073ffffffffffffffffffffffffffffffffffffffff82169050919050565b6000612dba82612d8f565b9050919050565b612dca81612daf565b82525050565b6000602082019050612de56000830184612dc1565b92915050565b612df481612daf565b8114612dff57600080fd5b50565b600081359050612e1181612deb565b92915050565b60008060408385031215612e2e57612e2d612bb5565b5b6000612e3c85828601612e02565b9250506020612e4d85828601612d4d565b9150509250929050565b600081519050919050565b600082825260208201905092915050565b6000819050602082019050919050565b612e8c81612d2c565b82525050565b6000612e9d82612d8f565b9050919050565b612ead81612e92565b82525050565b612ebc81612c44565b82525050565b60a082016000820151612ed86000850182612e83565b506020820151612eeb6020850182612ea4565b506040820151612efe6040850182612ea4565b506060820151612f116060850182612e83565b506080820151612f246080850182612eb3565b50505050565b6000612f368383612ec2565b60a08301905092915050565b6000602082019050919050565b6000612f5a82612e57565b612f648185612e62565b9350612f6f83612e73565b8060005b83811015612fa0578151612f878882612f2a565b9750612f9283612f42565b925050600181019050612f73565b5085935050505092915050565b60006020820190508181036000830152612fc78184612f4f565b905092915050565b612fd881612d2c565b82525050565b6000602082019050612ff36000830184612fcf565b92915050565b60008060006060848603121561301257613011612bb5565b5b600061302086828701612e02565b935050602061303186828701612e02565b925050604061304286828701612d4d565b9150509250925092565b60006020828403121561306257613061612bb5565b5b600061307084828501612e02565b91505092915050565b600080fd5b600080fd5b7f4e487b7100000000000000000000000000000000000000000000000000000000600052604160045260246000fd5b6130bb82612cc0565b810181811067ffffffffffffffff821117156130da576130d9613083565b5b80604052505050565b60006130ed612bab565b90506130f982826130b2565b919050565b600067ffffffffffffffff82111561311957613118613083565b5b61312282612cc0565b9050602081019050919050565b82818337600083830152505050565b600061315161314c846130fe565b6130e3565b90508281526020810184848401111561316d5761316c61307e565b5b61317884828561312f565b509392505050565b600082601f83011261319557613194613079565b5b81356131a584826020860161313e565b91505092915050565b600080604083850312156131c5576131c4612bb5565b5b600083013567ffffffffffffffff8111156131e3576131e2612bba565b5b6131ef85828601613180565b925050602061320085828601612d4d565b9150509250929050565b6000806040838503121561322157613220612bb5565b5b600061322f85828601612d4d565b925050602061324085828601612d4d565b9150509250929050565b61325381612c44565b811461325e57600080fd5b50565b6000813590506132708161324a565b92915050565b6000806040838503121561328d5761328c612bb5565b5b600061329b85828601612e02565b92505060206132ac85828601613261565b9150509250929050565b600067ffffffffffffffff8211156132d1576132d0613083565b5b6132da82612cc0565b9050602081019050919050565b60006132fa6132f5846132b6565b6130e3565b9050828152602081018484840111156133165761331561307e565b5b61332184828561312f565b509392505050565b600082601f83011261333e5761333d613079565b5b813561334e8482602086016132e7565b91505092915050565b6000806000806080858703121561337157613370612bb5565b5b600061337f87828801612e02565b945050602061339087828801612e02565b93505060406133a187828801612d4d565b925050606085013567ffffffffffffffff8111156133c2576133c1612bba565b5b6133ce87828801613329565b91505092959194509250565b600080604083850312156133f1576133f0612bb5565b5b60006133ff85828601612e02565b925050602061341085828601612e02565b9150509250929050565b7f4e487b7100000000000000000000000000000000000000000000000000000000600052602260045260246000fd5b6000600282049050600182168061346157607f821691505b6020821081036134745761347361341a565b5b50919050565b7f4552433732313a20617070726f76616c20746f2063757272656e74206f776e6560008201527f7200000000000000000000000000000000000000000000000000000000000000602082015250565b60006134d6602183612c85565b91506134e18261347a565b604082019050919050565b60006020820190508181036000830152613505816134c9565b9050919050565b7f4552433732313a20617070726f76652063616c6c6572206973206e6f7420746f60008201527f6b656e206f776e6572206f7220617070726f76656420666f7220616c6c000000602082015250565b6000613568603d83612c85565b91506135738261350c565b604082019050919050565b600060208201905081810360008301526135978161355b565b9050919050565b7f4e487b7100000000000000000000000000000000000000000000000000000000600052601160045260246000fd5b60006135d882612d2c565b91506135e383612d2c565b92508282039050818111156135fb576135fa61359e565b5b92915050565b600061360c82612d2c565b915061361783612d2c565b925082820190508082111561362f5761362e61359e565b5b92915050565b7f4e487b7100000000000000000000000000000000000000000000000000000000600052603260045260246000fd5b600061366f82612d2c565b91507fffffffffffffffffffffffffffffffffffffffffffffffffffffffffffffffff82036136a1576136a061359e565b5b600182019050919050565b7f4552433732313a2063616c6c6572206973206e6f7420746f6b656e206f776e6560008201527f72206f7220617070726f76656400000000000000000000000000000000000000602082015250565b6000613708602d83612c85565b9150613713826136ac565b604082019050919050565b60006020820190508181036000830152613737816136fb565b9050919050565b7f4552433732313a20696e76616c696420746f6b656e2049440000000000000000600082015250565b6000613774601883612c85565b915061377f8261373e565b602082019050919050565b600060208201905081810360008301526137a381613767565b9050919050565b7f4552433732313a2061646472657373207a65726f206973206e6f74206120766160008201527f6c6964206f776e65720000000000000000000000000000000000000000000000602082015250565b6000613806602983612c85565b9150613811826137aa565b604082019050919050565b60006020820190508181036000830152613835816137f9565b9050919050565b7f4f6e6c79206974656d206f776e65722063616e20706572666f726d207468697360008201527f206f7065726174696f6e00000000000000000000000000000000000000000000602082015250565b6000613898602a83612c85565b91506138a38261383c565b604082019050919050565b600060208201905081810360008301526138c78161388b565b9050919050565b7f5072696365206d75737420626520657175616c20746f206c697374696e67207060008201527f7269636500000000000000000000000000000000000000000000000000000000602082015250565b600061392a602483612c85565b9150613935826138ce565b604082019050919050565b600060208201905081810360008301526139598161391d565b9050919050565b7f6f6e6c79206f776e6572206f6620746865206d61726b6574706c61636520636160008201527f6e206368616e676520746865206c697374696e67207072696365000000000000602082015250565b60006139bc603a83612c85565b91506139c782613960565b604082019050919050565b600060208201905081810360008301526139eb816139af565b9050919050565b7f506c65617365207375626d6974207468652061736b696e67207072696365206960008201527f6e206f7264657220746f20636f6d706c65746520746865207075726368617365602082015250565b6000613a4e604083612c85565b9150613a59826139f2565b604082019050919050565b60006020820190508181036000830152613a7d81613a41565b9050919050565b600081905092915050565b6000613a9a82612c7a565b613aa48185613a84565b9350613ab4818560208601612c96565b80840191505092915050565b6000613acc8285613a8f565b9150613ad88284613a8f565b91508190509392505050565b7f4552433732313a207472616e736665722066726f6d20696e636f72726563742060008201527f6f776e6572000000000000000000000000000000000000000000000000000000602082015250565b6000613b40602583612c85565b9150613b4b82613ae4565b604082019050919050565b60006020820190508181036000830152613b6f81613b33565b9050919050565b7f4552433732313a207472616e7366657220746f20746865207a65726f2061646460008201527f7265737300000000000000000000000000000000000000000000000000000000602082015250565b6000613bd2602483612c85565b9150613bdd82613b76565b604082019050919050565b60006020820190508181036000830152613c0181613bc5565b9050919050565b7f4552433732313a206d696e7420746f20746865207a65726f2061646472657373600082015250565b6000613c3e602083612c85565b9150613c4982613c08565b602082019050919050565b60006020820190508181036000830152613c6d81613c31565b9050919050565b7f4552433732313a20746f6b656e20616c7265616479206d696e74656400000000600082015250565b6000613caa601c83612c85565b9150613cb582613c74565b602082019050919050565b60006020820190508181036000830152613cd981613c9d565b9050919050565b7f45524337323155524953746f726167653a2055524920736574206f66206e6f6e60008201527f6578697374656e7420746f6b656e000000000000000000000000000000000000602082015250565b6000613d3c602e83612c85565b9150613d4782613ce0565b604082019050919050565b60006020820190508181036000830152613d6b81613d2f565b9050919050565b60008190508160005260206000209050919050565b60006020601f8301049050919050565b600082821b905092915050565b600060088302613dd47fffffffffffffffffffffffffffffffffffffffffffffffffffffffffffffffff82613d97565b613dde8683613d97565b95508019841693508086168417925050509392505050565b6000819050919050565b6000613e1b613e16613e1184612d2c565b613df6565b612d2c565b9050919050565b6000819050919050565b613e3583613e00565b613e49613e4182613e22565b848454613da4565b825550505050565b600090565b613e5e613e51565b613e69818484613e2c565b505050565b5b81811015613e8d57613e82600082613e56565b600181019050613e6f565b5050565b601f821115613ed257613ea381613d72565b613eac84613d87565b81016020851015613ebb578190505b613ecf613ec785613d87565b830182613e6e565b50505b505050565b600082821c905092915050565b6000613ef560001984600802613ed7565b1980831691505092915050565b6000613f0e8383613ee4565b9150826002028217905092915050565b613f2782612c7a565b67ffffffffffffffff811115613f4057613f3f613083565b5b613f4a8254613449565b613f55828285613e91565b600060209050601f831160018114613f885760008415613f76578287015190505b613f808582613f02565b865550613fe8565b601f198416613f9686613d72565b60005b82811015613fbe57848901518255600182019150602085019450602081019050613f99565b86831015613fdb5784890151613fd7601f891682613ee4565b8355505b6001600288020188555050505b505050505050565b7f5072696365206d75737420626520616c206c6573742031000000000000000000600082015250565b6000614026601783612c85565b915061403182613ff0565b602082019050919050565b6000602082019050818103600083015261405581614019565b9050919050565b7f50726963206d75737420626520657175616c20746f206c697374696e6720707260008201527f6963650000000000000000000000000000000000000000000000000000000000602082015250565b60006140b8602383612c85565b91506140c38261405c565b604082019050919050565b600060208201905081810360008301526140e7816140ab565b9050919050565b60006080820190506141036000830187612dc1565b6141106020830186612dc1565b61411d6040830185612fcf565b61412a6060830184612c50565b95945050505050565b7f436f756e7465723a2064656372656d656e74206f766572666c6f770000000000600082015250565b6000614169601b83612c85565b915061417482614133565b602082019050919050565b600060208201905081810360008301526141988161415c565b9050919050565b7f4552433732313a20617070726f766520746f2063616c6c657200000000000000600082015250565b60006141d5601983612c85565b91506141e08261419f565b602082019050919050565b60006020820190508181036000830152614204816141c8565b9050919050565b7f4552433732313a207472616e7366657220746f206e6f6e20455243373231526560008201527f63656976657220696d706c656d656e7465720000000000000000000000000000602082015250565b6000614267603283612c85565b91506142728261420b565b604082019050919050565b600060208201905081810360008301526142968161425a565b9050919050565b600081519050919050565b600082825260208201905092915050565b60006142c48261429d565b6142ce81856142a8565b93506142de818560208601612c96565b6142e781612cc0565b840191505092915050565b60006080820190506143076000830187612dc1565b6143146020830186612dc1565b6143216040830185612fcf565b818103606083015261433381846142b9565b905095945050505050565b60008151905061434d81612beb565b92915050565b60006020828403121561436957614368612bb5565b5b60006143778482850161433e565b91505092915050565b7f4e487b7100000000000000000000000000000000000000000000000000000000600052601260045260246000fdfea26469706673582212202f3fd13d4d599c77b6c9dc1ac3f759a636497e03d79fba25ba336b6e54df67a664736f6c63430008110033",
  "linkReferences": {},
  "deployedLinkReferences": {}
}